{
  "contractName": "CryptoDoggies",
  "abi": [
    {
      "constant": false,
      "inputs": [
        {
          "name": "_to",
          "type": "address"
        },
        {
          "name": "_tokenId",
          "type": "uint256"
        }
      ],
      "name": "approve",
      "outputs": [],
      "payable": false,
      "stateMutability": "nonpayable",
      "type": "function"
    },
    {
      "constant": true,
      "inputs": [],
      "name": "ceoAddress",
      "outputs": [
        {
          "name": "",
          "type": "address"
        }
      ],
      "payable": false,
      "stateMutability": "view",
      "type": "function"
    },
    {
      "constant": false,
      "inputs": [
        {
          "name": "_to",
          "type": "address"
        },
        {
          "name": "_amount",
          "type": "uint256"
        }
      ],
      "name": "withdrawBalance",
      "outputs": [],
      "payable": false,
      "stateMutability": "nonpayable",
      "type": "function"
    },
    {
      "constant": true,
      "inputs": [],
      "name": "implementsERC721",
      "outputs": [
        {
          "name": "",
          "type": "bool"
        }
      ],
      "payable": false,
      "stateMutability": "view",
      "type": "function"
    },
    {
      "constant": true,
      "inputs": [],
      "name": "totalSupply",
      "outputs": [
        {
          "name": "_totalSupply",
          "type": "uint256"
        }
      ],
      "payable": false,
      "stateMutability": "view",
      "type": "function"
    },
    {
      "constant": false,
      "inputs": [
        {
          "name": "_from",
          "type": "address"
        },
        {
          "name": "_to",
          "type": "address"
        },
        {
          "name": "_tokenId",
          "type": "uint256"
        }
      ],
      "name": "transferFrom",
      "outputs": [],
      "payable": false,
      "stateMutability": "nonpayable",
      "type": "function"
    },
    {
      "constant": false,
      "inputs": [
        {
          "name": "_newCEO",
          "type": "address"
        }
      ],
      "name": "setCEO",
      "outputs": [],
      "payable": false,
      "stateMutability": "nonpayable",
      "type": "function"
    },
    {
      "constant": true,
      "inputs": [],
      "name": "getAllTokens",
      "outputs": [
        {
          "name": "",
          "type": "uint256[]"
        },
        {
          "name": "",
          "type": "uint256[]"
        },
        {
          "name": "",
          "type": "address[]"
        }
      ],
      "payable": false,
      "stateMutability": "view",
      "type": "function"
    },
    {
      "constant": false,
      "inputs": [
        {
          "name": "_newCOO",
          "type": "address"
        }
      ],
      "name": "setCOO",
      "outputs": [],
      "payable": false,
      "stateMutability": "nonpayable",
      "type": "function"
    },
    {
      "constant": false,
      "inputs": [],
      "name": "unpause",
      "outputs": [],
      "payable": false,
      "stateMutability": "nonpayable",
      "type": "function"
    },
    {
      "constant": false,
      "inputs": [
        {
          "name": "_name",
          "type": "string"
        }
      ],
      "name": "createToken",
      "outputs": [],
      "payable": false,
      "stateMutability": "nonpayable",
      "type": "function"
    },
    {
      "constant": true,
      "inputs": [
        {
          "name": "_owner",
          "type": "address"
        }
      ],
      "name": "tokensOf",
      "outputs": [
        {
          "name": "",
          "type": "uint256[]"
        }
      ],
      "payable": false,
      "stateMutability": "view",
      "type": "function"
    },
    {
      "constant": true,
      "inputs": [
        {
          "name": "_tokenId",
          "type": "uint256"
        }
      ],
      "name": "nextPriceOf",
      "outputs": [
        {
          "name": "_nextPrice",
          "type": "uint256"
        }
      ],
      "payable": false,
      "stateMutability": "view",
      "type": "function"
    },
    {
      "constant": true,
      "inputs": [],
      "name": "paused",
      "outputs": [
        {
          "name": "",
          "type": "bool"
        }
      ],
      "payable": false,
      "stateMutability": "view",
      "type": "function"
    },
    {
      "constant": true,
      "inputs": [
        {
          "name": "_tokenId",
          "type": "uint256"
        }
      ],
      "name": "ownerOf",
      "outputs": [
        {
          "name": "_owner",
          "type": "address"
        }
      ],
      "payable": false,
      "stateMutability": "view",
      "type": "function"
    },
    {
      "constant": true,
      "inputs": [
        {
          "name": "_owner",
          "type": "address"
        }
      ],
      "name": "balanceOf",
      "outputs": [
        {
          "name": "_balance",
          "type": "uint256"
        }
      ],
      "payable": false,
      "stateMutability": "view",
      "type": "function"
    },
    {
      "constant": false,
      "inputs": [],
      "name": "enableERC721",
      "outputs": [],
      "payable": false,
      "stateMutability": "nonpayable",
      "type": "function"
    },
    {
      "constant": false,
      "inputs": [
        {
          "name": "_name",
          "type": "string"
        },
        {
          "name": "_owner",
          "type": "address"
        },
        {
          "name": "_price",
          "type": "uint256"
        }
      ],
      "name": "createToken",
      "outputs": [],
      "payable": false,
      "stateMutability": "nonpayable",
      "type": "function"
    },
    {
      "constant": false,
      "inputs": [],
      "name": "pause",
      "outputs": [],
      "payable": false,
      "stateMutability": "nonpayable",
      "type": "function"
    },
    {
      "constant": false,
      "inputs": [
        {
          "name": "_to",
          "type": "address"
        },
        {
          "name": "_tokenId",
          "type": "uint256"
        }
      ],
      "name": "transfer",
      "outputs": [],
      "payable": false,
      "stateMutability": "nonpayable",
      "type": "function"
    },
    {
      "constant": true,
      "inputs": [],
      "name": "cooAddress",
      "outputs": [
        {
          "name": "",
          "type": "address"
        }
      ],
      "payable": false,
      "stateMutability": "view",
      "type": "function"
    },
    {
      "constant": false,
      "inputs": [
        {
          "name": "_tokenId",
          "type": "uint256"
        }
      ],
      "name": "takeOwnership",
      "outputs": [],
      "payable": false,
      "stateMutability": "nonpayable",
      "type": "function"
    },
    {
      "constant": true,
      "inputs": [
        {
          "name": "_tokenId",
          "type": "uint256"
        }
      ],
      "name": "priceOf",
      "outputs": [
        {
          "name": "_price",
          "type": "uint256"
        }
      ],
      "payable": false,
      "stateMutability": "view",
      "type": "function"
    },
    {
      "constant": true,
      "inputs": [
        {
          "name": "_tokenId",
          "type": "uint256"
        }
      ],
      "name": "getToken",
      "outputs": [
        {
          "name": "_tokenName",
          "type": "string"
        },
        {
          "name": "_price",
          "type": "uint256"
        },
        {
          "name": "_nextPrice",
          "type": "uint256"
        },
        {
          "name": "_owner",
          "type": "address"
        }
      ],
      "payable": false,
      "stateMutability": "view",
      "type": "function"
    },
    {
      "constant": true,
      "inputs": [
        {
          "name": "",
          "type": "uint256"
        }
      ],
      "name": "tokenIdToApproved",
      "outputs": [
        {
          "name": "",
          "type": "address"
        }
      ],
      "payable": false,
      "stateMutability": "view",
      "type": "function"
    },
    {
      "constant": false,
      "inputs": [
        {
          "name": "_tokenId",
          "type": "uint256"
        }
      ],
      "name": "purchase",
      "outputs": [],
      "payable": true,
      "stateMutability": "payable",
      "type": "function"
    },
    {
      "anonymous": false,
      "inputs": [
        {
          "indexed": false,
          "name": "tokenId",
          "type": "uint256"
        },
        {
          "indexed": false,
          "name": "name",
          "type": "string"
        },
        {
          "indexed": false,
          "name": "price",
          "type": "uint256"
        },
        {
          "indexed": false,
          "name": "owner",
          "type": "address"
        }
      ],
      "name": "TokenCreated",
      "type": "event"
    },
    {
      "anonymous": false,
      "inputs": [
        {
          "indexed": true,
          "name": "tokenId",
          "type": "uint256"
        },
        {
          "indexed": false,
          "name": "name",
          "type": "string"
        },
        {
          "indexed": false,
          "name": "sellingPrice",
          "type": "uint256"
        },
        {
          "indexed": false,
          "name": "newPrice",
          "type": "uint256"
        },
        {
          "indexed": true,
          "name": "oldOwner",
          "type": "address"
        },
        {
          "indexed": true,
          "name": "newOwner",
          "type": "address"
        }
      ],
      "name": "TokenSold",
      "type": "event"
    },
    {
      "anonymous": false,
      "inputs": [
        {
          "indexed": true,
          "name": "_from",
          "type": "address"
        },
        {
          "indexed": true,
          "name": "_to",
          "type": "address"
        },
        {
          "indexed": false,
          "name": "_tokenId",
          "type": "uint256"
        }
      ],
      "name": "Transfer",
      "type": "event"
    },
    {
      "anonymous": false,
      "inputs": [
        {
          "indexed": true,
          "name": "_owner",
          "type": "address"
        },
        {
          "indexed": true,
          "name": "_approved",
          "type": "address"
        },
        {
          "indexed": false,
          "name": "_tokenId",
          "type": "uint256"
        }
      ],
      "name": "Approval",
      "type": "event"
    },
    {
      "constant": true,
      "inputs": [],
      "name": "name",
      "outputs": [
        {
          "name": "_name",
          "type": "string"
        }
      ],
      "payable": false,
      "stateMutability": "view",
      "type": "function"
    },
    {
      "constant": true,
      "inputs": [],
      "name": "symbol",
      "outputs": [
        {
          "name": "_symbol",
          "type": "string"
        }
      ],
      "payable": false,
      "stateMutability": "view",
      "type": "function"
    }
  ],
  "bytecode": "0x60606040526000600160146101000a81548160ff021916908315150217905550662386f26fc100006007556000600860006101000a81548160ff02191690831515021790555066470de4df8200006009556706f05b59d3b20000600a55671bc16d674ec80000600b55674563918244f40000600c55336000806101000a81548173ffffffffffffffffffffffffffffffffffffffff021916908373ffffffffffffffffffffffffffffffffffffffff16021790555033600160006101000a81548173ffffffffffffffffffffffffffffffffffffffff021916908373ffffffffffffffffffffffffffffffffffffffff16021790555061251c806101046000396000f30060606040526004361061016a576000357c0100000000000000000000000000000000000000000000000000000000900463ffffffff16806306fdde031461016f578063095ea7b3146101fd5780630a0f81681461023f5780630cf20cc9146102945780631051db34146102d657806318160ddd1461030357806323b872dd1461032c57806327d7874c1461038d5780632a5c792a146103c65780632ba73c15146104c05780633f4ba83a146104f957806345576f941461050e5780635a3f26721461056b5780635ba9e48e146105f95780635c975abb146106305780636352211e1461065d57806370a08231146106c057806371dc761e1461070d57806373b4df05146107225780638456cb59146107a757806395d89b41146107bc578063a9059cbb1461084a578063b047fb501461088c578063b2e6ceeb146108e1578063b9186d7d14610904578063e4b50cb81461093b578063eb5653d714610a18578063efef39a114610a7b575b600080fd5b341561017a57600080fd5b610182610a93565b6040518080602001828103825283818151815260200191508051906020019080838360005b838110156101c25780820151818401526020810190506101a7565b50505050905090810190601f1680156101ef5780820380516001836020036101000a031916815260200191505b509250505060405180910390f35b341561020857600080fd5b61023d600480803573ffffffffffffffffffffffffffffffffffffffff16906020019091908035906020019091905050610ad6565b005b341561024a57600080fd5b610252610bdd565b604051808273ffffffffffffffffffffffffffffffffffffffff1673ffffffffffffffffffffffffffffffffffffffff16815260200191505060405180910390f35b341561029f57600080fd5b6102d4600480803573ffffffffffffffffffffffffffffffffffffffff16906020019091908035906020019091905050610c02565b005b34156102e157600080fd5b6102e9610d87565b604051808215151515815260200191505060405180910390f35b341561030e57600080fd5b610316610dba565b6040518082815260200191505060405180910390f35b341561033757600080fd5b61038b600480803573ffffffffffffffffffffffffffffffffffffffff1690602001909190803573ffffffffffffffffffffffffffffffffffffffff16906020019091908035906020019091905050610dc7565b005b341561039857600080fd5b6103c4600480803573ffffffffffffffffffffffffffffffffffffffff16906020019091905050610e74565b005b34156103d157600080fd5b6103d9610f4e565b60405180806020018060200180602001848103845287818151815260200191508051906020019060200280838360005b83811015610424578082015181840152602081019050610409565b50505050905001848103835286818151815260200191508051906020019060200280838360005b8381101561046657808201518184015260208101905061044b565b50505050905001848103825285818151815260200191508051906020019060200280838360005b838110156104a857808201518184015260208101905061048d565b50505050905001965050505050505060405180910390f35b34156104cb57600080fd5b6104f7600480803573ffffffffffffffffffffffffffffffffffffffff169060200190919050506110ef565b005b341561050457600080fd5b61050c6111ca565b005b341561051957600080fd5b610569600480803590602001908201803590602001908080601f0160208091040260200160405190810160405280939291908181526020018383808284378201915050505050509190505061125d565b005b341561057657600080fd5b6105a2600480803573ffffffffffffffffffffffffffffffffffffffff16906020019091905050611320565b6040518080602001828103825283818151815260200191508051906020019060200280838360005b838110156105e55780820151818401526020810190506105ca565b505050509050019250505060405180910390f35b341561060457600080fd5b61061a6004808035906020019091905050611456565b6040518082815260200191505060405180910390f35b341561063b57600080fd5b610643611574565b604051808215151515815260200191505060405180910390f35b341561066857600080fd5b61067e6004808035906020019091905050611587565b604051808273ffffffffffffffffffffffffffffffffffffffff1673ffffffffffffffffffffffffffffffffffffffff16815260200191505060405180910390f35b34156106cb57600080fd5b6106f7600480803573ffffffffffffffffffffffffffffffffffffffff169060200190919050506115c4565b6040518082815260200191505060405180910390f35b341561071857600080fd5b61072061160d565b005b341561072d57600080fd5b6107a5600480803590602001908201803590602001908080601f0160208091040260200160405190810160405280939291908181526020018383808284378201915050505050509190803573ffffffffffffffffffffffffffffffffffffffff16906020019091908035906020019091905050611685565b005b34156107b257600080fd5b6107ba611795565b005b34156107c757600080fd5b6107cf611828565b6040518080602001828103825283818151815260200191508051906020019080838360005b8381101561080f5780820151818401526020810190506107f4565b50505050905090810190601f16801561083c5780820380516001836020036101000a031916815260200191505b509250505060405180910390f35b341561085557600080fd5b61088a600480803573ffffffffffffffffffffffffffffffffffffffff1690602001909190803590602001909190505061186b565b005b341561089757600080fd5b61089f611902565b604051808273ffffffffffffffffffffffffffffffffffffffff1673ffffffffffffffffffffffffffffffffffffffff16815260200191505060405180910390f35b34156108ec57600080fd5b6109026004808035906020019091905050611928565b005b341561090f57600080fd5b61092560048080359060200190919050506119b5565b6040518082815260200191505060405180910390f35b341561094657600080fd5b61095c60048080359060200190919050506119d2565b60405180806020018581526020018481526020018373ffffffffffffffffffffffffffffffffffffffff1673ffffffffffffffffffffffffffffffffffffffff168152602001828103825286818151815260200191508051906020019080838360005b838110156109da5780820151818401526020810190506109bf565b50505050905090810190601f168015610a075780820380516001836020036101000a031916815260200191505b509550505050505060405180910390f35b3415610a2357600080fd5b610a396004808035906020019091905050611af5565b604051808273ffffffffffffffffffffffffffffffffffffffff1673ffffffffffffffffffffffffffffffffffffffff16815260200191505060405180910390f35b610a916004808035906020019091905050611b28565b005b610a9b61233e565b6040805190810160405280600d81526020017f43727970746f446f676769657300000000000000000000000000000000000000815250905090565b600160149054906101000a900460ff16151515610af257600080fd5b600860009054906101000a900460ff161515610b0d57600080fd5b610b173382611eaa565b1515610b2257600080fd5b816005600083815260200190815260200160002060006101000a81548173ffffffffffffffffffffffffffffffffffffffff021916908373ffffffffffffffffffffffffffffffffffffffff1602179055508173ffffffffffffffffffffffffffffffffffffffff163373ffffffffffffffffffffffffffffffffffffffff167f8c5be1e5ebec7d5bd14f71427d1e84f3dd0314c0f7b2291e5b200ac8c7c3b925836040518082815260200191505060405180910390a35050565b6000809054906101000a900473ffffffffffffffffffffffffffffffffffffffff1681565b6000809054906101000a900473ffffffffffffffffffffffffffffffffffffffff1673ffffffffffffffffffffffffffffffffffffffff163373ffffffffffffffffffffffffffffffffffffffff16141515610c5d57600080fd5b3073ffffffffffffffffffffffffffffffffffffffff16318111151515610c8357600080fd5b6000811415610ca7573073ffffffffffffffffffffffffffffffffffffffff163190505b600073ffffffffffffffffffffffffffffffffffffffff168273ffffffffffffffffffffffffffffffffffffffff161415610d42576000809054906101000a900473ffffffffffffffffffffffffffffffffffffffff1673ffffffffffffffffffffffffffffffffffffffff166108fc829081150290604051600060405180830381858888f193505050501515610d3d57600080fd5b610d83565b8173ffffffffffffffffffffffffffffffffffffffff166108fc829081150290604051600060405180830381858888f193505050501515610d8257600080fd5b5b5050565b6000600160149054906101000a900460ff16151515610da557600080fd5b600860009054906101000a900460ff16905090565b6000600680549050905090565b600160149054906101000a900460ff16151515610de357600080fd5b600860009054906101000a900460ff161515610dfe57600080fd5b600073ffffffffffffffffffffffffffffffffffffffff168273ffffffffffffffffffffffffffffffffffffffff1614151515610e3a57600080fd5b610e448382611eaa565b1515610e4f57600080fd5b610e593382611f16565b1515610e6457600080fd5b610e6f838383611f82565b505050565b6000809054906101000a900473ffffffffffffffffffffffffffffffffffffffff1673ffffffffffffffffffffffffffffffffffffffff163373ffffffffffffffffffffffffffffffffffffffff16141515610ecf57600080fd5b600073ffffffffffffffffffffffffffffffffffffffff168173ffffffffffffffffffffffffffffffffffffffff1614151515610f0b57600080fd5b806000806101000a81548173ffffffffffffffffffffffffffffffffffffffff021916908373ffffffffffffffffffffffffffffffffffffffff16021790555050565b610f56612352565b610f5e612352565b610f66612366565b6000610f70612352565b610f78612352565b610f80612366565b6000610f8a610dba565b945084604051805910610f9a5750595b9080825280602002602001820160405250935084604051805910610fbb5750595b9080825280602002602001820160405250925084604051805910610fdc5750595b90808252806020026020018201604052509150600090505b848110156110dc576003600082815260200190815260200160002054848281518110151561101e57fe5b906020019060200201818152505061103581611456565b838281518110151561104357fe5b90602001906020020181815250506002600082815260200190815260200160002060009054906101000a900473ffffffffffffffffffffffffffffffffffffffff16828281518110151561109357fe5b9060200190602002019073ffffffffffffffffffffffffffffffffffffffff16908173ffffffffffffffffffffffffffffffffffffffff16815250508080600101915050610ff4565b8383839750975097505050505050909192565b6000809054906101000a900473ffffffffffffffffffffffffffffffffffffffff1673ffffffffffffffffffffffffffffffffffffffff163373ffffffffffffffffffffffffffffffffffffffff1614151561114a57600080fd5b600073ffffffffffffffffffffffffffffffffffffffff168173ffffffffffffffffffffffffffffffffffffffff161415151561118657600080fd5b80600160006101000a81548173ffffffffffffffffffffffffffffffffffffffff021916908373ffffffffffffffffffffffffffffffffffffffff16021790555050565b6000809054906101000a900473ffffffffffffffffffffffffffffffffffffffff1673ffffffffffffffffffffffffffffffffffffffff163373ffffffffffffffffffffffffffffffffffffffff1614151561122557600080fd5b600160149054906101000a900460ff16151561124057600080fd5b6000600160146101000a81548160ff021916908315150217905550565b6000809054906101000a900473ffffffffffffffffffffffffffffffffffffffff1673ffffffffffffffffffffffffffffffffffffffff163373ffffffffffffffffffffffffffffffffffffffff1614806113055750600160009054906101000a900473ffffffffffffffffffffffffffffffffffffffff1673ffffffffffffffffffffffffffffffffffffffff163373ffffffffffffffffffffffffffffffffffffffff16145b151561131057600080fd5b61131d813060075461214a565b50565b611328612352565b6000611332612352565b6000806000611340876115c4565b9450600085141561137257600060405180591061135a5750595b9080825280602002602001820160405250955061144c565b846040518059106113805750595b9080825280602002602001820160405250935061139b610dba565b925060009150600090505b82811015611448578673ffffffffffffffffffffffffffffffffffffffff166002600083815260200190815260200160002060009054906101000a900473ffffffffffffffffffffffffffffffffffffffff1673ffffffffffffffffffffffffffffffffffffffff16141561143b5780848381518110151561142457fe5b906020019060200201818152505081806001019250505b80806001019150506113a6565b8395505b5050505050919050565b600080611462836119b5565b905060095481101561149c57611495605f61148760c8846122bc90919063ffffffff16565b6122f790919063ffffffff16565b915061156e565b600a548110156114d4576114cd60606114bf6087846122bc90919063ffffffff16565b6122f790919063ffffffff16565b915061156e565b600b5481101561150c5761150560616114f7607d846122bc90919063ffffffff16565b6122f790919063ffffffff16565b915061156e565b600c548110156115445761153d606161152f6075846122bc90919063ffffffff16565b6122f790919063ffffffff16565b915061156e565b61156b606261155d6073846122bc90919063ffffffff16565b6122f790919063ffffffff16565b91505b50919050565b600160149054906101000a900460ff1681565b60006002600083815260200190815260200160002060009054906101000a900473ffffffffffffffffffffffffffffffffffffffff169050919050565b6000600460008373ffffffffffffffffffffffffffffffffffffffff1673ffffffffffffffffffffffffffffffffffffffff168152602001908152602001600020549050919050565b6000809054906101000a900473ffffffffffffffffffffffffffffffffffffffff1673ffffffffffffffffffffffffffffffffffffffff163373ffffffffffffffffffffffffffffffffffffffff1614151561166857600080fd5b6001600860006101000a81548160ff021916908315150217905550565b6000809054906101000a900473ffffffffffffffffffffffffffffffffffffffff1673ffffffffffffffffffffffffffffffffffffffff163373ffffffffffffffffffffffffffffffffffffffff16148061172d5750600160009054906101000a900473ffffffffffffffffffffffffffffffffffffffff1673ffffffffffffffffffffffffffffffffffffffff163373ffffffffffffffffffffffffffffffffffffffff16145b151561173857600080fd5b600073ffffffffffffffffffffffffffffffffffffffff168273ffffffffffffffffffffffffffffffffffffffff161415151561177457600080fd5b600754811015151561178557600080fd5b61179083838361214a565b505050565b6000809054906101000a900473ffffffffffffffffffffffffffffffffffffffff1673ffffffffffffffffffffffffffffffffffffffff163373ffffffffffffffffffffffffffffffffffffffff161415156117f057600080fd5b600160149054906101000a900460ff1615151561180c57600080fd5b60018060146101000a81548160ff021916908315150217905550565b61183061233e565b6040805190810160405280600381526020017f43444b0000000000000000000000000000000000000000000000000000000000815250905090565b600160149054906101000a900460ff1615151561188757600080fd5b600860009054906101000a900460ff1615156118a257600080fd5b600073ffffffffffffffffffffffffffffffffffffffff168273ffffffffffffffffffffffffffffffffffffffff16141515156118de57600080fd5b6118e83382611eaa565b15156118f357600080fd5b6118fe338383611f82565b5050565b600160009054906101000a900473ffffffffffffffffffffffffffffffffffffffff1681565b600160149054906101000a900460ff1615151561194457600080fd5b600860009054906101000a900460ff16151561195f57600080fd5b6119693382611f16565b151561197457600080fd5b6119b26002600083815260200190815260200160002060009054906101000a900473ffffffffffffffffffffffffffffffffffffffff163383611f82565b50565b600060036000838152602001908152602001600020549050919050565b6119da61233e565b60008060006006858154811015156119ee57fe5b90600052602060002090016000018054600181600116156101000203166002900480601f016020809104026020016040519081016040528092919081815260200182805460018160011615610100020316600290048015611a905780601f10611a6557610100808354040283529160200191611a90565b820191906000526020600020905b815481529060010190602001808311611a7357829003601f168201915b5050505050935060036000868152602001908152602001600020549250611ab685611456565b91506002600086815260200190815260200160002060009054906101000a900473ffffffffffffffffffffffffffffffffffffffff1690509193509193565b60056020528060005260406000206000915054906101000a900473ffffffffffffffffffffffffffffffffffffffff1681565b6000806000806000600160149054906101000a900460ff16151515611b4c57600080fd5b611b5586611587565b9450339350611b63866119b5565b9250600073ffffffffffffffffffffffffffffffffffffffff168573ffffffffffffffffffffffffffffffffffffffff1614151515611ba157600080fd5b600073ffffffffffffffffffffffffffffffffffffffff168473ffffffffffffffffffffffffffffffffffffffff1614151515611bdd57600080fd5b8373ffffffffffffffffffffffffffffffffffffffff168573ffffffffffffffffffffffffffffffffffffffff1614151515611c1857600080fd5b611c2184612312565b151515611c2d57600080fd5b600083111515611c3c57600080fd5b823410151515611c4b57600080fd5b611c56858588611f82565b611c5f86611456565b60036000888152602001908152602001600020819055508373ffffffffffffffffffffffffffffffffffffffff168573ffffffffffffffffffffffffffffffffffffffff16877fef3f7c55f619f7c9178e080691f6d9bc90a74668d32c107dea7c87da023c9a0f60068a815481101515611cd557fe5b906000526020600020900160000187611ced8c6119b5565b6040518080602001848152602001838152602001828103825285818154600181600116156101000203166002900481526020019150805460018160011615610100020316600290048015611d825780601f10611d5757610100808354040283529160200191611d82565b820191906000526020600020905b815481529060010190602001808311611d6557829003601f168201915b505094505050505060405180910390a4611da5833461232590919063ffffffff16565b9150611dce6064611dc06006866122bc90919063ffffffff16565b6122f790919063ffffffff16565b90503073ffffffffffffffffffffffffffffffffffffffff168573ffffffffffffffffffffffffffffffffffffffff16141515611e58578473ffffffffffffffffffffffffffffffffffffffff166108fc611e32838661232590919063ffffffff16565b9081150290604051600060405180830381858888f193505050501515611e5757600080fd5b5b6000821115611ea2578373ffffffffffffffffffffffffffffffffffffffff166108fc839081150290604051600060405180830381858888f193505050501515611ea157600080fd5b5b505050505050565b60008273ffffffffffffffffffffffffffffffffffffffff166002600084815260200190815260200160002060009054906101000a900473ffffffffffffffffffffffffffffffffffffffff1673ffffffffffffffffffffffffffffffffffffffff1614905092915050565b60008273ffffffffffffffffffffffffffffffffffffffff166005600084815260200190815260200160002060009054906101000a900473ffffffffffffffffffffffffffffffffffffffff1673ffffffffffffffffffffffffffffffffffffffff1614905092915050565b600460008373ffffffffffffffffffffffffffffffffffffffff1673ffffffffffffffffffffffffffffffffffffffff16815260200190815260200160002060008154809291906001019190505550816002600083815260200190815260200160002060006101000a81548173ffffffffffffffffffffffffffffffffffffffff021916908373ffffffffffffffffffffffffffffffffffffffff160217905550600073ffffffffffffffffffffffffffffffffffffffff168373ffffffffffffffffffffffffffffffffffffffff161415156120e057600460008473ffffffffffffffffffffffffffffffffffffffff1673ffffffffffffffffffffffffffffffffffffffff16815260200190815260200160002060008154809291906001900391905055506005600082815260200190815260200160002060006101000a81549073ffffffffffffffffffffffffffffffffffffffff02191690555b8173ffffffffffffffffffffffffffffffffffffffff168373ffffffffffffffffffffffffffffffffffffffff167fddf252ad1be2c89b69c2b068fc378daa952ba7f163c4a11628f55a4df523b3ef836040518082815260200191505060405180910390a3505050565b61215261237a565b600060206040519081016040528086815250915060016006805480600101828161217c9190612394565b9160005260206000209001600085909190915060008201518160000190805190602001906121ab9291906123c0565b5050500390508260036000838152602001908152602001600020819055507fd306967beeb39489cb6724748118d29c59bd0f0e17a5dd711b4f4d3dea3a1c478186858760405180858152602001806020018481526020018373ffffffffffffffffffffffffffffffffffffffff1673ffffffffffffffffffffffffffffffffffffffff168152602001828103825285818151815260200191508051906020019080838360005b8381101561226c578082015181840152602081019050612251565b50505050905090810190601f1680156122995780820380516001836020036101000a031916815260200191505b509550505050505060405180910390a16122b560008583611f82565b5050505050565b60008060008414156122d157600091506122f0565b82840290508284828115156122e257fe5b041415156122ec57fe5b8091505b5092915050565b600080828481151561230557fe5b0490508091505092915050565b600080823b905060008111915050919050565b600082821115151561233357fe5b818303905092915050565b602060405190810160405280600081525090565b602060405190810160405280600081525090565b602060405190810160405280600081525090565b60206040519081016040528061238e612440565b81525090565b8154818355818115116123bb578183600052602060002091820191016123ba9190612454565b5b505050565b828054600181600116156101000203166002900490600052602060002090601f016020900481019282601f1061240157805160ff191683800117855561242f565b8280016001018555821561242f579182015b8281111561242e578251825591602001919060010190612413565b5b50905061243c9190612483565b5090565b602060405190810160405280600081525090565b61248091905b8082111561247c576000808201600061247391906124a8565b5060010161245a565b5090565b90565b6124a591905b808211156124a1576000816000905550600101612489565b5090565b90565b50805460018160011615610100020316600290046000825580601f106124ce57506124ed565b601f0160209004906000526020600020908101906124ec9190612483565b5b505600a165627a7a7230582015564c42a1f726e3c73a83a35618d3db31fdc52d1a1feb3a026bb548a41caf8e0029",
  "source": "pragma solidity ^0.4.18;\n\nimport \"./math/SafeMath.sol\";\nimport \"./ownership/AccessControl.sol\";\nimport \"./token/ERC721.sol\";\n\n\n/**\n * Interface for optional functionality in the ERC721 standard\n * for non-fungible tokens.\n *\n * Author: Nadav Hollander (nadav at dharma.io)\n * https://github.com/dharmaprotocol/NonFungibleToken/blob/master/contracts/DetailedERC721.sol\n */\ncontract DetailedERC721 is ERC721 {\n    function name() public view returns (string _name);\n    function symbol() public view returns (string _symbol);\n    // function tokenMetadata(uint256 _tokenId) public view returns (string _infoUrl);\n    // function tokenOfOwnerByIndex(address _owner, uint256 _index) public view returns (uint256 _tokenId);\n}\n\n\ncontract CryptoDoggies is AccessControl, DetailedERC721 {\n    using SafeMath for uint256;\n\n    /// @dev The TokenCreated event is fired whenever a new token is created.\n    event TokenCreated(uint256 tokenId, string name, uint256 price, address owner);\n\n    /// @dev The TokenSold event is fired whenever a token is sold.\n    event TokenSold(uint256 indexed tokenId, string name, uint256 sellingPrice,\n    uint256 newPrice, address indexed oldOwner, address indexed newOwner);\n\n    /// @dev A mapping from tokenIds to the address that owns them. All tokens have\n    ///  some valid owner address.\n    mapping (uint256 => address) private tokenIdToOwner;\n\n    /// @dev A mapping from TokenIds to the price of the token.\n    mapping (uint256 => uint256) private tokenIdToPrice;\n\n    /// @dev A mapping from owner address to count of tokens that address owns.\n    ///  Used internally inside balanceOf() to resolve ownership count.\n    mapping (address => uint256) private ownershipTokenCount;\n\n    /// @dev A mapping from TokenIds to an address that has been approved to call\n    ///  transferFrom(). Each Token can only have one approved address for transfer\n    ///  at any time. A zero value means no approval is outstanding\n    mapping (uint256 => address) public tokenIdToApproved;\n\n    struct Doggy {\n        string name;\n    }\n\n    Doggy[] private doggies;\n\n    uint256 private startingPrice = 0.01 ether;\n    bool private erc721Enabled = false;\n\n    modifier onlyERC721() {\n        require(erc721Enabled);\n        _;\n    }\n\n    /// @dev Creates a new token with the given name and _price and assignes it to an _owner.\n    function createToken(string _name, address _owner, uint256 _price) public onlyCLevel {\n        require(_owner != address(0));\n        require(_price >= startingPrice);\n\n        _createToken(_name, _owner, _price);\n    }\n\n    /// @dev Creates a new token with the given name.\n    function createToken(string _name) public onlyCLevel {\n        _createToken(_name, address(this), startingPrice);\n    }\n\n    function _createToken(string _name, address _owner, uint256 _price) private {\n        Doggy memory _doggy = Doggy({\n            name: _name\n        });\n        uint256 newTokenId = doggies.push(_doggy) - 1;\n        tokenIdToPrice[newTokenId] = _price;\n\n        TokenCreated(newTokenId, _name, _price, _owner);\n\n        // This will assign ownership, and also emit the Transfer event as per ERC721 draft\n        _transfer(address(0), _owner, newTokenId);\n    }\n\n    function getToken(uint256 _tokenId) public view returns (\n        string _tokenName,\n        uint256 _price,\n        uint256 _nextPrice,\n        address _owner\n    ) {\n        _tokenName = doggies[_tokenId].name;\n        _price = tokenIdToPrice[_tokenId];\n        _nextPrice = nextPriceOf(_tokenId);\n        _owner = tokenIdToOwner[_tokenId];\n    }\n\n    function getAllTokens() public view returns (\n        uint256[],\n        uint256[],\n        address[]\n    ) {\n        uint256 total = totalSupply();\n        uint256[] memory prices = new uint256[](total);\n        uint256[] memory nextPrices = new uint256[](total);\n        address[] memory owners = new address[](total);\n\n        for (uint256 i = 0; i < total; i++) {\n            prices[i] = tokenIdToPrice[i];\n            nextPrices[i] = nextPriceOf(i);\n            owners[i] = tokenIdToOwner[i];\n        }\n\n        return (prices, nextPrices, owners);\n    }\n\n    function tokensOf(address _owner) public view returns(uint256[]) {\n        uint256 tokenCount = balanceOf(_owner);\n        if (tokenCount == 0) {\n            // Return an empty array\n            return new uint256[](0);\n        } else {\n            uint256[] memory result = new uint256[](tokenCount);\n            uint256 total = totalSupply();\n            uint256 resultIndex = 0;\n\n            for (uint256 i = 0; i < total; i++) {\n                if (tokenIdToOwner[i] == _owner) {\n                    result[resultIndex] = i;\n                    resultIndex++;\n                }\n            }\n            return result;\n        }\n    }\n\n    /// @dev This function withdraws the contract owner's cut.\n    /// Any amount may be withdrawn as there is no user funds.\n    /// User funds are immediately sent to the old owner in `purchase`\n    function withdrawBalance(address _to, uint256 _amount) public onlyCEO {\n        require(_amount <= this.balance);\n\n        if (_amount == 0) {\n            _amount = this.balance;\n        }\n\n        if (_to == address(0)) {\n            ceoAddress.transfer(_amount);\n        } else {\n            _to.transfer(_amount);\n        }\n    }\n\n    // Send ether and obtain the token\n    function purchase(uint256 _tokenId) public payable whenNotPaused {\n        address oldOwner = ownerOf(_tokenId);\n        address newOwner = msg.sender;\n        uint256 sellingPrice = priceOf(_tokenId);\n\n        // active tokens\n        require(oldOwner != address(0));\n        // maybe one day newOwner's logic allows this to happen\n        require(newOwner != address(0));\n        // don't buy from yourself\n        require(oldOwner != newOwner);\n        // don't sell to contracts\n        // but even this doesn't prevent bad contracts to become an owner of a token\n        require(!_isContract(newOwner));\n        // another check to be sure that token is active\n        require(sellingPrice > 0);\n        // min required amount check\n        require(msg.value >= sellingPrice);\n\n        // transfer to the new owner\n        _transfer(oldOwner, newOwner, _tokenId);\n        // update fields before emitting an event\n        tokenIdToPrice[_tokenId] = nextPriceOf(_tokenId);\n        // emit event\n        TokenSold(_tokenId, doggies[_tokenId].name, sellingPrice, priceOf(_tokenId), oldOwner, newOwner);\n\n        // extra ether which should be returned back to buyer\n        uint256 excess = msg.value.sub(sellingPrice);\n        // contract owner's cut which is left in contract and accesed by withdrawBalance\n        uint256 contractCut = sellingPrice.mul(6).div(100); // 6%\n\n        // no need to transfer if it's initial sell\n        if (oldOwner != address(this)) {\n            // transfer payment to seller minus the contract's cut\n            oldOwner.transfer(sellingPrice.sub(contractCut));\n        }\n\n        // return extra ether\n        if (excess > 0) {\n            newOwner.transfer(excess);\n        }\n    }\n\n    function priceOf(uint256 _tokenId) public view returns (uint256 _price) {\n        return tokenIdToPrice[_tokenId];\n    }\n\n    uint256 private increaseLimit1 = 0.02 ether;\n    uint256 private increaseLimit2 = 0.5 ether;\n    uint256 private increaseLimit3 = 2.0 ether;\n    uint256 private increaseLimit4 = 5.0 ether;\n\n    function nextPriceOf(uint256 _tokenId) public view returns (uint256 _nextPrice) {\n        uint256 _price = priceOf(_tokenId);\n        if (_price < increaseLimit1) {\n            return _price.mul(200).div(95);\n        } else if (_price < increaseLimit2) {\n            return _price.mul(135).div(96);\n        } else if (_price < increaseLimit3) {\n            return _price.mul(125).div(97);\n        } else if (_price < increaseLimit4) {\n            return _price.mul(117).div(97);\n        } else {\n            return _price.mul(115).div(98);\n        }\n    }\n\n    /*** ERC-721 ***/\n    // Unlocks ERC721 behaviour, allowing for trading on third party platforms.\n    function enableERC721() public onlyCEO {\n        erc721Enabled = true;\n    }\n\n    function totalSupply() public view returns (uint256 _totalSupply) {\n        _totalSupply = doggies.length;\n    }\n\n    function balanceOf(address _owner) public view returns (uint256 _balance) {\n        _balance = ownershipTokenCount[_owner];\n    }\n\n    function ownerOf(uint256 _tokenId) public view returns (address _owner) {\n        _owner = tokenIdToOwner[_tokenId];\n        // require(_owner != address(0));\n    }\n\n    function approve(address _to, uint256 _tokenId) public whenNotPaused onlyERC721 {\n        require(_owns(msg.sender, _tokenId));\n\n        tokenIdToApproved[_tokenId] = _to;\n\n        Approval(msg.sender, _to, _tokenId);\n    }\n\n    function transferFrom(address _from, address _to, uint256 _tokenId) public whenNotPaused onlyERC721 {\n        require(_to != address(0));\n        require(_owns(_from, _tokenId));\n        require(_approved(msg.sender, _tokenId));\n\n        _transfer(_from, _to, _tokenId);\n    }\n\n    function transfer(address _to, uint256 _tokenId) public whenNotPaused onlyERC721 {\n        require(_to != address(0));\n        require(_owns(msg.sender, _tokenId));\n\n        // Reassign ownership, clear pending approvals, emit Transfer event.\n        _transfer(msg.sender, _to, _tokenId);\n    }\n\n    function implementsERC721() public view whenNotPaused returns (bool) {\n        return erc721Enabled;\n    }\n\n    function takeOwnership(uint256 _tokenId) public whenNotPaused onlyERC721 {\n        require(_approved(msg.sender, _tokenId));\n\n        _transfer(tokenIdToOwner[_tokenId], msg.sender, _tokenId);\n    }\n\n    function name() public view returns (string _name) {\n        _name = \"CryptoDoggies\";\n    }\n\n    function symbol() public view returns (string _symbol) {\n        _symbol = \"CDK\";\n    }\n\n    /*** PRIVATES ***/\n    /// @dev Check for token ownership.\n    function _owns(address _claimant, uint256 _tokenId) private view returns (bool) {\n        return tokenIdToOwner[_tokenId] == _claimant;\n    }\n\n    /// @dev For checking approval of transfer for address _to.\n    function _approved(address _to, uint256 _tokenId) private view returns (bool) {\n        return tokenIdToApproved[_tokenId] == _to;\n    }\n\n    /// @dev Assigns ownership of a specific token to an address.\n    function _transfer(address _from, address _to, uint256 _tokenId) private {\n        // Since the number of tokens is capped to 2^32 we can't overflow this\n        ownershipTokenCount[_to]++;\n        // Transfer ownership\n        tokenIdToOwner[_tokenId] = _to;\n\n        // When creating new token _from is 0x0, but we can't account that address.\n        if (_from != address(0)) {\n            ownershipTokenCount[_from]--;\n            // clear any previously approved ownership exchange\n            delete tokenIdToApproved[_tokenId];\n        }\n\n        // Emit the transfer event.\n        Transfer(_from, _to, _tokenId);\n    }\n\n    /// @dev Checks if the address ia a contract or not\n    function _isContract(address addr) private view returns (bool) {\n        uint256 size;\n        assembly { size := extcodesize(addr) }\n        return size > 0;\n    }\n}\n",
  "sourcePath": "/Users/nathan/Dropbox/Work/Udemy/smart-contract-game/materials/cryptodoggies/contracts/CryptoDoggies.sol",
  "compiler": {
    "name": "solc",
    "version": "0.4.19+commit.c4cbbb05.Emscripten.clang"
  },
  "schemaVersion": "1.0.1",
  "updatedAt": "2018-02-27T15:07:36.791Z"
}