{
  "contractName": "CryptoDoggies",
  "abi": [
    {
      "constant": false,
      "inputs": [
        {
          "name": "_to",
          "type": "address"
        },
        {
          "name": "_tokenId",
          "type": "uint256"
        }
      ],
      "name": "approve",
      "outputs": [],
      "payable": false,
      "stateMutability": "nonpayable",
      "type": "function"
    },
    {
      "constant": true,
      "inputs": [],
      "name": "ceoAddress",
      "outputs": [
        {
          "name": "",
          "type": "address"
        }
      ],
      "payable": false,
      "stateMutability": "view",
      "type": "function"
    },
    {
      "constant": false,
      "inputs": [
        {
          "name": "_to",
          "type": "address"
        },
        {
          "name": "_amount",
          "type": "uint256"
        }
      ],
      "name": "withdrawBalance",
      "outputs": [],
      "payable": false,
      "stateMutability": "nonpayable",
      "type": "function"
    },
    {
      "constant": true,
      "inputs": [],
      "name": "implementsERC721",
      "outputs": [
        {
          "name": "",
          "type": "bool"
        }
      ],
      "payable": false,
      "stateMutability": "view",
      "type": "function"
    },
    {
      "constant": true,
      "inputs": [],
      "name": "totalSupply",
      "outputs": [
        {
          "name": "_totalSupply",
          "type": "uint256"
        }
      ],
      "payable": false,
      "stateMutability": "view",
      "type": "function"
    },
    {
      "constant": false,
      "inputs": [
        {
          "name": "_from",
          "type": "address"
        },
        {
          "name": "_to",
          "type": "address"
        },
        {
          "name": "_tokenId",
          "type": "uint256"
        }
      ],
      "name": "transferFrom",
      "outputs": [],
      "payable": false,
      "stateMutability": "nonpayable",
      "type": "function"
    },
    {
      "constant": false,
      "inputs": [
        {
          "name": "_newCEO",
          "type": "address"
        }
      ],
      "name": "setCEO",
      "outputs": [],
      "payable": false,
      "stateMutability": "nonpayable",
      "type": "function"
    },
    {
      "constant": true,
      "inputs": [],
      "name": "getAllTokens",
      "outputs": [
        {
          "name": "",
          "type": "uint256[]"
        },
        {
          "name": "",
          "type": "uint256[]"
        },
        {
          "name": "",
          "type": "address[]"
        }
      ],
      "payable": false,
      "stateMutability": "view",
      "type": "function"
    },
    {
      "constant": false,
      "inputs": [
        {
          "name": "_newCOO",
          "type": "address"
        }
      ],
      "name": "setCOO",
      "outputs": [],
      "payable": false,
      "stateMutability": "nonpayable",
      "type": "function"
    },
    {
      "constant": false,
      "inputs": [],
      "name": "unpause",
      "outputs": [],
      "payable": false,
      "stateMutability": "nonpayable",
      "type": "function"
    },
    {
      "constant": false,
      "inputs": [
        {
          "name": "_name",
          "type": "string"
        }
      ],
      "name": "createToken",
      "outputs": [],
      "payable": false,
      "stateMutability": "nonpayable",
      "type": "function"
    },
    {
      "constant": true,
      "inputs": [
        {
          "name": "_owner",
          "type": "address"
        }
      ],
      "name": "tokensOf",
      "outputs": [
        {
          "name": "",
          "type": "uint256[]"
        }
      ],
      "payable": false,
      "stateMutability": "view",
      "type": "function"
    },
    {
      "constant": true,
      "inputs": [
        {
          "name": "_tokenId",
          "type": "uint256"
        }
      ],
      "name": "nextPriceOf",
      "outputs": [
        {
          "name": "_nextPrice",
          "type": "uint256"
        }
      ],
      "payable": false,
      "stateMutability": "view",
      "type": "function"
    },
    {
      "constant": true,
      "inputs": [],
      "name": "paused",
      "outputs": [
        {
          "name": "",
          "type": "bool"
        }
      ],
      "payable": false,
      "stateMutability": "view",
      "type": "function"
    },
    {
      "constant": true,
      "inputs": [
        {
          "name": "_tokenId",
          "type": "uint256"
        }
      ],
      "name": "ownerOf",
      "outputs": [
        {
          "name": "_owner",
          "type": "address"
        }
      ],
      "payable": false,
      "stateMutability": "view",
      "type": "function"
    },
    {
      "constant": true,
      "inputs": [
        {
          "name": "_owner",
          "type": "address"
        }
      ],
      "name": "balanceOf",
      "outputs": [
        {
          "name": "_balance",
          "type": "uint256"
        }
      ],
      "payable": false,
      "stateMutability": "view",
      "type": "function"
    },
    {
      "constant": false,
      "inputs": [],
      "name": "enableERC721",
      "outputs": [],
      "payable": false,
      "stateMutability": "nonpayable",
      "type": "function"
    },
    {
      "constant": false,
      "inputs": [
        {
          "name": "_name",
          "type": "string"
        },
        {
          "name": "_owner",
          "type": "address"
        },
        {
          "name": "_price",
          "type": "uint256"
        }
      ],
      "name": "createToken",
      "outputs": [],
      "payable": false,
      "stateMutability": "nonpayable",
      "type": "function"
    },
    {
      "constant": false,
      "inputs": [],
      "name": "pause",
      "outputs": [],
      "payable": false,
      "stateMutability": "nonpayable",
      "type": "function"
    },
    {
      "constant": false,
      "inputs": [
        {
          "name": "_to",
          "type": "address"
        },
        {
          "name": "_tokenId",
          "type": "uint256"
        }
      ],
      "name": "transfer",
      "outputs": [],
      "payable": false,
      "stateMutability": "nonpayable",
      "type": "function"
    },
    {
      "constant": true,
      "inputs": [],
      "name": "cooAddress",
      "outputs": [
        {
          "name": "",
          "type": "address"
        }
      ],
      "payable": false,
      "stateMutability": "view",
      "type": "function"
    },
    {
      "constant": false,
      "inputs": [
        {
          "name": "_tokenId",
          "type": "uint256"
        }
      ],
      "name": "takeOwnership",
      "outputs": [],
      "payable": false,
      "stateMutability": "nonpayable",
      "type": "function"
    },
    {
      "constant": true,
      "inputs": [
        {
          "name": "_tokenId",
          "type": "uint256"
        }
      ],
      "name": "priceOf",
      "outputs": [
        {
          "name": "_price",
          "type": "uint256"
        }
      ],
      "payable": false,
      "stateMutability": "view",
      "type": "function"
    },
    {
      "constant": true,
      "inputs": [
        {
          "name": "_tokenId",
          "type": "uint256"
        }
      ],
      "name": "getToken",
      "outputs": [
        {
          "name": "_tokenName",
          "type": "string"
        },
        {
          "name": "_dna",
          "type": "bytes5"
        },
        {
          "name": "_price",
          "type": "uint256"
        },
        {
          "name": "_nextPrice",
          "type": "uint256"
        },
        {
          "name": "_owner",
          "type": "address"
        }
      ],
      "payable": false,
      "stateMutability": "view",
      "type": "function"
    },
    {
      "constant": true,
      "inputs": [
        {
          "name": "",
          "type": "uint256"
        }
      ],
      "name": "tokenIdToApproved",
      "outputs": [
        {
          "name": "",
          "type": "address"
        }
      ],
      "payable": false,
      "stateMutability": "view",
      "type": "function"
    },
    {
      "constant": false,
      "inputs": [
        {
          "name": "_tokenId",
          "type": "uint256"
        }
      ],
      "name": "purchase",
      "outputs": [],
      "payable": true,
      "stateMutability": "payable",
      "type": "function"
    },
    {
      "anonymous": false,
      "inputs": [
        {
          "indexed": false,
          "name": "tokenId",
          "type": "uint256"
        },
        {
          "indexed": false,
          "name": "name",
          "type": "string"
        },
        {
          "indexed": false,
          "name": "dna",
          "type": "bytes5"
        },
        {
          "indexed": false,
          "name": "price",
          "type": "uint256"
        },
        {
          "indexed": false,
          "name": "owner",
          "type": "address"
        }
      ],
      "name": "TokenCreated",
      "type": "event"
    },
    {
      "anonymous": false,
      "inputs": [
        {
          "indexed": true,
          "name": "tokenId",
          "type": "uint256"
        },
        {
          "indexed": false,
          "name": "name",
          "type": "string"
        },
        {
          "indexed": false,
          "name": "dna",
          "type": "bytes5"
        },
        {
          "indexed": false,
          "name": "sellingPrice",
          "type": "uint256"
        },
        {
          "indexed": false,
          "name": "newPrice",
          "type": "uint256"
        },
        {
          "indexed": true,
          "name": "oldOwner",
          "type": "address"
        },
        {
          "indexed": true,
          "name": "newOwner",
          "type": "address"
        }
      ],
      "name": "TokenSold",
      "type": "event"
    },
    {
      "anonymous": false,
      "inputs": [
        {
          "indexed": true,
          "name": "_from",
          "type": "address"
        },
        {
          "indexed": true,
          "name": "_to",
          "type": "address"
        },
        {
          "indexed": false,
          "name": "_tokenId",
          "type": "uint256"
        }
      ],
      "name": "Transfer",
      "type": "event"
    },
    {
      "anonymous": false,
      "inputs": [
        {
          "indexed": true,
          "name": "_owner",
          "type": "address"
        },
        {
          "indexed": true,
          "name": "_approved",
          "type": "address"
        },
        {
          "indexed": false,
          "name": "_tokenId",
          "type": "uint256"
        }
      ],
      "name": "Approval",
      "type": "event"
    },
    {
      "constant": true,
      "inputs": [],
      "name": "name",
      "outputs": [
        {
          "name": "_name",
          "type": "string"
        }
      ],
      "payable": false,
      "stateMutability": "view",
      "type": "function"
    },
    {
      "constant": true,
      "inputs": [],
      "name": "symbol",
      "outputs": [
        {
          "name": "_symbol",
          "type": "string"
        }
      ],
      "payable": false,
      "stateMutability": "view",
      "type": "function"
    }
  ],
  "bytecode": "0x60606040526000600160146101000a81548160ff021916908315150217905550662386f26fc100006007556000600860006101000a81548160ff02191690831515021790555066470de4df8200006009556706f05b59d3b20000600a55671bc16d674ec80000600b55674563918244f40000600c55336000806101000a81548173ffffffffffffffffffffffffffffffffffffffff021916908373ffffffffffffffffffffffffffffffffffffffff16021790555033600160006101000a81548173ffffffffffffffffffffffffffffffffffffffff021916908373ffffffffffffffffffffffffffffffffffffffff160217905550612779806101046000396000f30060606040526004361061016a576000357c0100000000000000000000000000000000000000000000000000000000900463ffffffff16806306fdde031461016f578063095ea7b3146101fd5780630a0f81681461023f5780630cf20cc9146102945780631051db34146102d657806318160ddd1461030357806323b872dd1461032c57806327d7874c1461038d5780632a5c792a146103c65780632ba73c15146104c05780633f4ba83a146104f957806345576f941461050e5780635a3f26721461056b5780635ba9e48e146105f95780635c975abb146106305780636352211e1461065d57806370a08231146106c057806371dc761e1461070d57806373b4df05146107225780638456cb59146107a757806395d89b41146107bc578063a9059cbb1461084a578063b047fb501461088c578063b2e6ceeb146108e1578063b9186d7d14610904578063e4b50cb81461093b578063eb5653d714610a5b578063efef39a114610abe575b600080fd5b341561017a57600080fd5b610182610ad6565b6040518080602001828103825283818151815260200191508051906020019080838360005b838110156101c25780820151818401526020810190506101a7565b50505050905090810190601f1680156101ef5780820380516001836020036101000a031916815260200191505b509250505060405180910390f35b341561020857600080fd5b61023d600480803573ffffffffffffffffffffffffffffffffffffffff16906020019091908035906020019091905050610b19565b005b341561024a57600080fd5b610252610c20565b604051808273ffffffffffffffffffffffffffffffffffffffff1673ffffffffffffffffffffffffffffffffffffffff16815260200191505060405180910390f35b341561029f57600080fd5b6102d4600480803573ffffffffffffffffffffffffffffffffffffffff16906020019091908035906020019091905050610c45565b005b34156102e157600080fd5b6102e9610dca565b604051808215151515815260200191505060405180910390f35b341561030e57600080fd5b610316610dfd565b6040518082815260200191505060405180910390f35b341561033757600080fd5b61038b600480803573ffffffffffffffffffffffffffffffffffffffff1690602001909190803573ffffffffffffffffffffffffffffffffffffffff16906020019091908035906020019091905050610e0a565b005b341561039857600080fd5b6103c4600480803573ffffffffffffffffffffffffffffffffffffffff16906020019091905050610eb7565b005b34156103d157600080fd5b6103d9610f91565b60405180806020018060200180602001848103845287818151815260200191508051906020019060200280838360005b83811015610424578082015181840152602081019050610409565b50505050905001848103835286818151815260200191508051906020019060200280838360005b8381101561046657808201518184015260208101905061044b565b50505050905001848103825285818151815260200191508051906020019060200280838360005b838110156104a857808201518184015260208101905061048d565b50505050905001965050505050505060405180910390f35b34156104cb57600080fd5b6104f7600480803573ffffffffffffffffffffffffffffffffffffffff16906020019091905050611132565b005b341561050457600080fd5b61050c61120d565b005b341561051957600080fd5b610569600480803590602001908201803590602001908080601f016020809104026020016040519081016040528093929190818152602001838380828437820191505050505050919050506112a0565b005b341561057657600080fd5b6105a2600480803573ffffffffffffffffffffffffffffffffffffffff16906020019091905050611371565b6040518080602001828103825283818151815260200191508051906020019060200280838360005b838110156105e55780820151818401526020810190506105ca565b505050509050019250505060405180910390f35b341561060457600080fd5b61061a60048080359060200190919050506114a7565b6040518082815260200191505060405180910390f35b341561063b57600080fd5b6106436115c5565b604051808215151515815260200191505060405180910390f35b341561066857600080fd5b61067e60048080359060200190919050506115d8565b604051808273ffffffffffffffffffffffffffffffffffffffff1673ffffffffffffffffffffffffffffffffffffffff16815260200191505060405180910390f35b34156106cb57600080fd5b6106f7600480803573ffffffffffffffffffffffffffffffffffffffff16906020019091905050611615565b6040518082815260200191505060405180910390f35b341561071857600080fd5b61072061165e565b005b341561072d57600080fd5b6107a5600480803590602001908201803590602001908080601f0160208091040260200160405190810160405280939291908181526020018383808284378201915050505050509190803573ffffffffffffffffffffffffffffffffffffffff169060200190919080359060200190919050506116d6565b005b34156107b257600080fd5b6107ba6117f4565b005b34156107c757600080fd5b6107cf611887565b6040518080602001828103825283818151815260200191508051906020019080838360005b8381101561080f5780820151818401526020810190506107f4565b50505050905090810190601f16801561083c5780820380516001836020036101000a031916815260200191505b509250505060405180910390f35b341561085557600080fd5b61088a600480803573ffffffffffffffffffffffffffffffffffffffff169060200190919080359060200190919050506118ca565b005b341561089757600080fd5b61089f611961565b604051808273ffffffffffffffffffffffffffffffffffffffff1673ffffffffffffffffffffffffffffffffffffffff16815260200191505060405180910390f35b34156108ec57600080fd5b6109026004808035906020019091905050611987565b005b341561090f57600080fd5b6109256004808035906020019091905050611a14565b6040518082815260200191505060405180910390f35b341561094657600080fd5b61095c6004808035906020019091905050611a31565b6040518080602001867affffffffffffffffffffffffffffffffffffffffffffffffffffff19167affffffffffffffffffffffffffffffffffffffffffffffffffffff191681526020018581526020018481526020018373ffffffffffffffffffffffffffffffffffffffff1673ffffffffffffffffffffffffffffffffffffffff168152602001828103825287818151815260200191508051906020019080838360005b83811015610a1c578082015181840152602081019050610a01565b50505050905090810190601f168015610a495780820380516001836020036101000a031916815260200191505b50965050505050505060405180910390f35b3415610a6657600080fd5b610a7c6004808035906020019091905050611ba5565b604051808273ffffffffffffffffffffffffffffffffffffffff1673ffffffffffffffffffffffffffffffffffffffff16815260200191505060405180910390f35b610ad46004808035906020019091905050611bd8565b005b610ade612559565b6040805190810160405280600d81526020017f43727970746f446f676769657300000000000000000000000000000000000000815250905090565b600160149054906101000a900460ff16151515610b3557600080fd5b600860009054906101000a900460ff161515610b5057600080fd5b610b5a3382611fe9565b1515610b6557600080fd5b816005600083815260200190815260200160002060006101000a81548173ffffffffffffffffffffffffffffffffffffffff021916908373ffffffffffffffffffffffffffffffffffffffff1602179055508173ffffffffffffffffffffffffffffffffffffffff163373ffffffffffffffffffffffffffffffffffffffff167f8c5be1e5ebec7d5bd14f71427d1e84f3dd0314c0f7b2291e5b200ac8c7c3b925836040518082815260200191505060405180910390a35050565b6000809054906101000a900473ffffffffffffffffffffffffffffffffffffffff1681565b6000809054906101000a900473ffffffffffffffffffffffffffffffffffffffff1673ffffffffffffffffffffffffffffffffffffffff163373ffffffffffffffffffffffffffffffffffffffff16141515610ca057600080fd5b3073ffffffffffffffffffffffffffffffffffffffff16318111151515610cc657600080fd5b6000811415610cea573073ffffffffffffffffffffffffffffffffffffffff163190505b600073ffffffffffffffffffffffffffffffffffffffff168273ffffffffffffffffffffffffffffffffffffffff161415610d85576000809054906101000a900473ffffffffffffffffffffffffffffffffffffffff1673ffffffffffffffffffffffffffffffffffffffff166108fc829081150290604051600060405180830381858888f193505050501515610d8057600080fd5b610dc6565b8173ffffffffffffffffffffffffffffffffffffffff166108fc829081150290604051600060405180830381858888f193505050501515610dc557600080fd5b5b5050565b6000600160149054906101000a900460ff16151515610de857600080fd5b600860009054906101000a900460ff16905090565b6000600680549050905090565b600160149054906101000a900460ff16151515610e2657600080fd5b600860009054906101000a900460ff161515610e4157600080fd5b600073ffffffffffffffffffffffffffffffffffffffff168273ffffffffffffffffffffffffffffffffffffffff1614151515610e7d57600080fd5b610e878382611fe9565b1515610e9257600080fd5b610e9c3382612055565b1515610ea757600080fd5b610eb28383836120c1565b505050565b6000809054906101000a900473ffffffffffffffffffffffffffffffffffffffff1673ffffffffffffffffffffffffffffffffffffffff163373ffffffffffffffffffffffffffffffffffffffff16141515610f1257600080fd5b600073ffffffffffffffffffffffffffffffffffffffff168173ffffffffffffffffffffffffffffffffffffffff1614151515610f4e57600080fd5b806000806101000a81548173ffffffffffffffffffffffffffffffffffffffff021916908373ffffffffffffffffffffffffffffffffffffffff16021790555050565b610f9961256d565b610fa161256d565b610fa9612581565b6000610fb361256d565b610fbb61256d565b610fc3612581565b6000610fcd610dfd565b945084604051805910610fdd5750595b9080825280602002602001820160405250935084604051805910610ffe5750595b908082528060200260200182016040525092508460405180591061101f5750595b90808252806020026020018201604052509150600090505b8481101561111f576003600082815260200190815260200160002054848281518110151561106157fe5b9060200190602002018181525050611078816114a7565b838281518110151561108657fe5b90602001906020020181815250506002600082815260200190815260200160002060009054906101000a900473ffffffffffffffffffffffffffffffffffffffff1682828151811015156110d657fe5b9060200190602002019073ffffffffffffffffffffffffffffffffffffffff16908173ffffffffffffffffffffffffffffffffffffffff16815250508080600101915050611037565b8383839750975097505050505050909192565b6000809054906101000a900473ffffffffffffffffffffffffffffffffffffffff1673ffffffffffffffffffffffffffffffffffffffff163373ffffffffffffffffffffffffffffffffffffffff1614151561118d57600080fd5b600073ffffffffffffffffffffffffffffffffffffffff168173ffffffffffffffffffffffffffffffffffffffff16141515156111c957600080fd5b80600160006101000a81548173ffffffffffffffffffffffffffffffffffffffff021916908373ffffffffffffffffffffffffffffffffffffffff16021790555050565b6000809054906101000a900473ffffffffffffffffffffffffffffffffffffffff1673ffffffffffffffffffffffffffffffffffffffff163373ffffffffffffffffffffffffffffffffffffffff1614151561126857600080fd5b600160149054906101000a900460ff16151561128357600080fd5b6000600160146101000a81548160ff021916908315150217905550565b60008060009054906101000a900473ffffffffffffffffffffffffffffffffffffffff1673ffffffffffffffffffffffffffffffffffffffff163373ffffffffffffffffffffffffffffffffffffffff16148061134a5750600160009054906101000a900473ffffffffffffffffffffffffffffffffffffffff1673ffffffffffffffffffffffffffffffffffffffff163373ffffffffffffffffffffffffffffffffffffffff16145b151561135557600080fd5b61135d612289565b905061136d8282306007546122b9565b5050565b61137961256d565b600061138361256d565b600080600061139187611615565b945060008514156113c35760006040518059106113ab5750595b9080825280602002602001820160405250955061149d565b846040518059106113d15750595b908082528060200260200182016040525093506113ec610dfd565b925060009150600090505b82811015611499578673ffffffffffffffffffffffffffffffffffffffff166002600083815260200190815260200160002060009054906101000a900473ffffffffffffffffffffffffffffffffffffffff1673ffffffffffffffffffffffffffffffffffffffff16141561148c5780848381518110151561147557fe5b906020019060200201818152505081806001019250505b80806001019150506113f7565b8395505b5050505050919050565b6000806114b383611a14565b90506009548110156114ed576114e6605f6114d860c8846124d790919063ffffffff16565b61251290919063ffffffff16565b91506115bf565b600a548110156115255761151e60606115106087846124d790919063ffffffff16565b61251290919063ffffffff16565b91506115bf565b600b5481101561155d576115566061611548607d846124d790919063ffffffff16565b61251290919063ffffffff16565b91506115bf565b600c548110156115955761158e60616115806075846124d790919063ffffffff16565b61251290919063ffffffff16565b91506115bf565b6115bc60626115ae6073846124d790919063ffffffff16565b61251290919063ffffffff16565b91505b50919050565b600160149054906101000a900460ff1681565b60006002600083815260200190815260200160002060009054906101000a900473ffffffffffffffffffffffffffffffffffffffff169050919050565b6000600460008373ffffffffffffffffffffffffffffffffffffffff1673ffffffffffffffffffffffffffffffffffffffff168152602001908152602001600020549050919050565b6000809054906101000a900473ffffffffffffffffffffffffffffffffffffffff1673ffffffffffffffffffffffffffffffffffffffff163373ffffffffffffffffffffffffffffffffffffffff161415156116b957600080fd5b6001600860006101000a81548160ff021916908315150217905550565b60008060009054906101000a900473ffffffffffffffffffffffffffffffffffffffff1673ffffffffffffffffffffffffffffffffffffffff163373ffffffffffffffffffffffffffffffffffffffff1614806117805750600160009054906101000a900473ffffffffffffffffffffffffffffffffffffffff1673ffffffffffffffffffffffffffffffffffffffff163373ffffffffffffffffffffffffffffffffffffffff16145b151561178b57600080fd5b600073ffffffffffffffffffffffffffffffffffffffff168373ffffffffffffffffffffffffffffffffffffffff16141515156117c757600080fd5b60075482101515156117d857600080fd5b6117e0612289565b90506117ee848285856122b9565b50505050565b6000809054906101000a900473ffffffffffffffffffffffffffffffffffffffff1673ffffffffffffffffffffffffffffffffffffffff163373ffffffffffffffffffffffffffffffffffffffff1614151561184f57600080fd5b600160149054906101000a900460ff1615151561186b57600080fd5b60018060146101000a81548160ff021916908315150217905550565b61188f612559565b6040805190810160405280600381526020017f43444b0000000000000000000000000000000000000000000000000000000000815250905090565b600160149054906101000a900460ff161515156118e657600080fd5b600860009054906101000a900460ff16151561190157600080fd5b600073ffffffffffffffffffffffffffffffffffffffff168273ffffffffffffffffffffffffffffffffffffffff161415151561193d57600080fd5b6119473382611fe9565b151561195257600080fd5b61195d3383836120c1565b5050565b600160009054906101000a900473ffffffffffffffffffffffffffffffffffffffff1681565b600160149054906101000a900460ff161515156119a357600080fd5b600860009054906101000a900460ff1615156119be57600080fd5b6119c83382612055565b15156119d357600080fd5b611a116002600083815260200190815260200160002060009054906101000a900473ffffffffffffffffffffffffffffffffffffffff1633836120c1565b50565b600060036000838152602001908152602001600020549050919050565b611a39612559565b600080600080600686815481101515611a4e57fe5b90600052602060002090600202016000018054600181600116156101000203166002900480601f016020809104026020016040519081016040528092919081815260200182805460018160011615610100020316600290048015611af35780601f10611ac857610100808354040283529160200191611af3565b820191906000526020600020905b815481529060010190602001808311611ad657829003601f168201915b50505050509450600686815481101515611b0957fe5b906000526020600020906002020160010160009054906101000a90047b0100000000000000000000000000000000000000000000000000000002935060036000878152602001908152602001600020549250611b64866114a7565b91506002600087815260200190815260200160002060009054906101000a900473ffffffffffffffffffffffffffffffffffffffff16905091939590929450565b60056020528060005260406000206000915054906101000a900473ffffffffffffffffffffffffffffffffffffffff1681565b6000806000806000600160149054906101000a900460ff16151515611bfc57600080fd5b611c05866115d8565b9450339350611c1386611a14565b9250600073ffffffffffffffffffffffffffffffffffffffff168573ffffffffffffffffffffffffffffffffffffffff1614151515611c5157600080fd5b600073ffffffffffffffffffffffffffffffffffffffff168473ffffffffffffffffffffffffffffffffffffffff1614151515611c8d57600080fd5b8373ffffffffffffffffffffffffffffffffffffffff168573ffffffffffffffffffffffffffffffffffffffff1614151515611cc857600080fd5b611cd18461252d565b151515611cdd57600080fd5b600083111515611cec57600080fd5b823410151515611cfb57600080fd5b611d068585886120c1565b611d0f866114a7565b60036000888152602001908152602001600020819055508373ffffffffffffffffffffffffffffffffffffffff168573ffffffffffffffffffffffffffffffffffffffff16877f47c2495ae9a226645e2cfa7b81ab70c2d82f35b0c69a72358812cca2f0f0bcbc60068a815481101515611d8557fe5b906000526020600020906002020160000160068b815481101515611da557fe5b906000526020600020906002020160010160009054906101000a90047b010000000000000000000000000000000000000000000000000000000288611de98d611a14565b6040518080602001857affffffffffffffffffffffffffffffffffffffffffffffffffffff19167affffffffffffffffffffffffffffffffffffffffffffffffffffff19168152602001848152602001838152602001828103825286818154600181600116156101000203166002900481526020019150805460018160011615610100020316600290048015611ec05780601f10611e9557610100808354040283529160200191611ec0565b820191906000526020600020905b815481529060010190602001808311611ea357829003601f168201915b50509550505050505060405180910390a4611ee4833461254090919063ffffffff16565b9150611f0d6064611eff6006866124d790919063ffffffff16565b61251290919063ffffffff16565b90503073ffffffffffffffffffffffffffffffffffffffff168573ffffffffffffffffffffffffffffffffffffffff16141515611f97578473ffffffffffffffffffffffffffffffffffffffff166108fc611f71838661254090919063ffffffff16565b9081150290604051600060405180830381858888f193505050501515611f9657600080fd5b5b6000821115611fe1578373ffffffffffffffffffffffffffffffffffffffff166108fc839081150290604051600060405180830381858888f193505050501515611fe057600080fd5b5b505050505050565b60008273ffffffffffffffffffffffffffffffffffffffff166002600084815260200190815260200160002060009054906101000a900473ffffffffffffffffffffffffffffffffffffffff1673ffffffffffffffffffffffffffffffffffffffff1614905092915050565b60008273ffffffffffffffffffffffffffffffffffffffff166005600084815260200190815260200160002060009054906101000a900473ffffffffffffffffffffffffffffffffffffffff1673ffffffffffffffffffffffffffffffffffffffff1614905092915050565b600460008373ffffffffffffffffffffffffffffffffffffffff1673ffffffffffffffffffffffffffffffffffffffff16815260200190815260200160002060008154809291906001019190505550816002600083815260200190815260200160002060006101000a81548173ffffffffffffffffffffffffffffffffffffffff021916908373ffffffffffffffffffffffffffffffffffffffff160217905550600073ffffffffffffffffffffffffffffffffffffffff168373ffffffffffffffffffffffffffffffffffffffff1614151561221f57600460008473ffffffffffffffffffffffffffffffffffffffff1673ffffffffffffffffffffffffffffffffffffffff16815260200190815260200160002060008154809291906001900391905055506005600082815260200190815260200160002060006101000a81549073ffffffffffffffffffffffffffffffffffffffff02191690555b8173ffffffffffffffffffffffffffffffffffffffff168373ffffffffffffffffffffffffffffffffffffffff167fddf252ad1be2c89b69c2b068fc378daa952ba7f163c4a11628f55a4df523b3ef836040518082815260200191505060405180910390a3505050565b6000806000806001430392508240915060d863ffffffff6001028316600019169060020a02905080935050505090565b6122c1612595565b60006040805190810160405280878152602001867affffffffffffffffffffffffffffffffffffffffffffffffffffff1916815250915060016006805480600101828161230e91906125d3565b916000526020600020906002020160008590919091506000820151816000019080519060200190612340929190612605565b5060208201518160010160006101000a81548164ffffffffff02191690837b010000000000000000000000000000000000000000000000000000009004021790555050500390508260036000838152602001908152602001600020819055507fe2541836f6f02475fc0b01a06c1e80d7e5098215c6015348851ceabef9d05e6881878786886040518086815260200180602001857affffffffffffffffffffffffffffffffffffffffffffffffffffff19167affffffffffffffffffffffffffffffffffffffffffffffffffffff191681526020018481526020018373ffffffffffffffffffffffffffffffffffffffff1673ffffffffffffffffffffffffffffffffffffffff168152602001828103825286818151815260200191508051906020019080838360005b8381101561248557808201518184015260208101905061246a565b50505050905090810190601f1680156124b25780820380516001836020036101000a031916815260200191505b50965050505050505060405180910390a16124cf600085836120c1565b505050505050565b60008060008414156124ec576000915061250b565b82840290508284828115156124fd57fe5b0414151561250757fe5b8091505b5092915050565b600080828481151561252057fe5b0490508091505092915050565b600080823b905060008111915050919050565b600082821115151561254e57fe5b818303905092915050565b602060405190810160405280600081525090565b602060405190810160405280600081525090565b602060405190810160405280600081525090565b60408051908101604052806125a8612685565b815260200160007affffffffffffffffffffffffffffffffffffffffffffffffffffff191681525090565b815481835581811511612600576002028160020283600052602060002091820191016125ff9190612699565b5b505050565b828054600181600116156101000203166002900490600052602060002090601f016020900481019282601f1061264657805160ff1916838001178555612674565b82800160010185558215612674579182015b82811115612673578251825591602001919060010190612658565b5b50905061268191906126e0565b5090565b602060405190810160405280600081525090565b6126dd91905b808211156126d957600080820160006126b89190612705565b6001820160006101000a81549064ffffffffff02191690555060020161269f565b5090565b90565b61270291905b808211156126fe5760008160009055506001016126e6565b5090565b90565b50805460018160011615610100020316600290046000825580601f1061272b575061274a565b601f01602090049060005260206000209081019061274991906126e0565b5b505600a165627a7a72305820f21e10b60116fe74e4427ae5e0523572d7039cea25d1c291ba9258a33c8412d80029",
  "source": "pragma solidity ^0.4.18;\n\nimport \"./SafeMath.sol\";\nimport \"./AccessControl.sol\";\nimport \"./ERC721.sol\";\n\n\n/**\n * Interface for optional functionality in the ERC721 standard\n * for non-fungible tokens.\n *\n * Author: Nadav Hollander (nadav at dharma.io)\n * https://github.com/dharmaprotocol/NonFungibleToken/blob/master/contracts/DetailedERC721.sol\n */\ncontract DetailedERC721 is ERC721 {\n    function name() public view returns (string _name);\n    function symbol() public view returns (string _symbol);\n    // function tokenMetadata(uint256 _tokenId) public view returns (string _infoUrl);\n    // function tokenOfOwnerByIndex(address _owner, uint256 _index) public view returns (uint256 _tokenId);\n}\n\n\ncontract CryptoDoggies is AccessControl, DetailedERC721 {\n    using SafeMath for uint256;\n\n    /// @dev The TokenCreated event is fired whenever a new token is created.\n    event TokenCreated(uint256 tokenId, string name, bytes5 dna, uint256 price, address owner);\n\n    /// @dev The TokenSold event is fired whenever a token is sold.\n    event TokenSold(uint256 indexed tokenId, string name, bytes5 dna, uint256 sellingPrice,\n    uint256 newPrice, address indexed oldOwner, address indexed newOwner);\n\n    /// @dev A mapping from tokenIds to the address that owns them. All tokens have\n    ///  some valid owner address.\n    mapping (uint256 => address) private tokenIdToOwner;\n\n    /// @dev A mapping from TokenIds to the price of the token.\n    mapping (uint256 => uint256) private tokenIdToPrice;\n\n    /// @dev A mapping from owner address to count of tokens that address owns.\n    ///  Used internally inside balanceOf() to resolve ownership count.\n    mapping (address => uint256) private ownershipTokenCount;\n\n    /// @dev A mapping from TokenIds to an address that has been approved to call\n    ///  transferFrom(). Each Token can only have one approved address for transfer\n    ///  at any time. A zero value means no approval is outstanding\n    mapping (uint256 => address) public tokenIdToApproved;\n\n    struct Doggy {\n        string name;\n        bytes5 dna;\n    }\n\n    Doggy[] private doggies;\n\n    uint256 private startingPrice = 0.01 ether;\n    bool private erc721Enabled = false;\n\n    modifier onlyERC721() {\n        require(erc721Enabled);\n        _;\n    }\n\n    /// @dev Creates a new token with the given name and _price and assignes it to an _owner.\n    function createToken(string _name, address _owner, uint256 _price) public onlyCLevel {\n        require(_owner != address(0));\n        require(_price >= startingPrice);\n\n        bytes5 _dna = _generateRandomDna(); // Generate random DNA\n        _createToken(_name, _dna, _owner, _price);\n    }\n\n    /// @dev Creates a new token with the given name.\n    function createToken(string _name) public onlyCLevel {\n        bytes5 _dna = _generateRandomDna(); // Generate random DNA\n        _createToken(_name, _dna, address(this), startingPrice);\n    }\n\n    /// @dev Creates a pseudo random 5byte value for the DNA.\n    function _generateRandomDna() private view returns (bytes5) {\n        uint256 lastBlockNumber = block.number - 1;\n        bytes32 hashVal = bytes32(block.blockhash(lastBlockNumber));\n        bytes5 dna = bytes5((hashVal & 0xffffffff) << 216);\n        return dna;\n    }\n\n    function _createToken(string _name, bytes5 _dna, address _owner, uint256 _price) private {\n        Doggy memory _doggy = Doggy({\n            name: _name,\n            dna: _dna\n        });\n        uint256 newTokenId = doggies.push(_doggy) - 1;\n        tokenIdToPrice[newTokenId] = _price;\n\n        TokenCreated(newTokenId, _name, _dna, _price, _owner);\n\n        // This will assign ownership, and also emit the Transfer event as per ERC721 draft\n        _transfer(address(0), _owner, newTokenId);\n    }\n\n    function getToken(uint256 _tokenId) public view returns (\n        string _tokenName,\n        bytes5 _dna,\n        uint256 _price,\n        uint256 _nextPrice,\n        address _owner\n    ) {\n        _tokenName = doggies[_tokenId].name;\n        _dna = doggies[_tokenId].dna;\n        _price = tokenIdToPrice[_tokenId];\n        _nextPrice = nextPriceOf(_tokenId);\n        _owner = tokenIdToOwner[_tokenId];\n    }\n\n    function getAllTokens() public view returns (\n        uint256[],\n        uint256[],\n        address[]\n    ) {\n        uint256 total = totalSupply();\n        uint256[] memory prices = new uint256[](total);\n        uint256[] memory nextPrices = new uint256[](total);\n        address[] memory owners = new address[](total);\n\n        for (uint256 i = 0; i < total; i++) {\n            prices[i] = tokenIdToPrice[i];\n            nextPrices[i] = nextPriceOf(i);\n            owners[i] = tokenIdToOwner[i];\n        }\n\n        return (prices, nextPrices, owners);\n    }\n\n    function tokensOf(address _owner) public view returns(uint256[]) {\n        uint256 tokenCount = balanceOf(_owner);\n        if (tokenCount == 0) {\n            // Return an empty array\n            return new uint256[](0);\n        } else {\n            uint256[] memory result = new uint256[](tokenCount);\n            uint256 total = totalSupply();\n            uint256 resultIndex = 0;\n\n            for (uint256 i = 0; i < total; i++) {\n                if (tokenIdToOwner[i] == _owner) {\n                    result[resultIndex] = i;\n                    resultIndex++;\n                }\n            }\n            return result;\n        }\n    }\n\n    /// @dev This function withdraws the contract owner's cut.\n    /// Any amount may be withdrawn as there is no user funds.\n    /// User funds are immediately sent to the old owner in `purchase`\n    function withdrawBalance(address _to, uint256 _amount) public onlyCEO {\n        require(_amount <= this.balance);\n\n        if (_amount == 0) {\n            _amount = this.balance;\n        }\n\n        if (_to == address(0)) {\n            ceoAddress.transfer(_amount);\n        } else {\n            _to.transfer(_amount);\n        }\n    }\n\n    // Send ether and obtain the token\n    function purchase(uint256 _tokenId) public payable whenNotPaused {\n        address oldOwner = ownerOf(_tokenId);\n        address newOwner = msg.sender;\n        uint256 sellingPrice = priceOf(_tokenId);\n\n        // active tokens\n        require(oldOwner != address(0));\n        // maybe one day newOwner's logic allows this to happen\n        require(newOwner != address(0));\n        // don't buy from yourself\n        require(oldOwner != newOwner);\n        // don't sell to contracts\n        // but even this doesn't prevent bad contracts to become an owner of a token\n        require(!_isContract(newOwner));\n        // another check to be sure that token is active\n        require(sellingPrice > 0);\n        // min required amount check\n        require(msg.value >= sellingPrice);\n\n        // transfer to the new owner\n        _transfer(oldOwner, newOwner, _tokenId);\n        // update fields before emitting an event\n        tokenIdToPrice[_tokenId] = nextPriceOf(_tokenId);\n        // emit event\n        TokenSold(_tokenId, doggies[_tokenId].name, doggies[_tokenId].dna, sellingPrice, priceOf(_tokenId), oldOwner, newOwner);\n\n        // extra ether which should be returned back to buyer\n        uint256 excess = msg.value.sub(sellingPrice);\n        // contract owner's cut which is left in contract and accesed by withdrawBalance\n        uint256 contractCut = sellingPrice.mul(6).div(100); // 6%\n\n        // no need to transfer if it's initial sell\n        if (oldOwner != address(this)) {\n            // transfer payment to seller minus the contract's cut\n            oldOwner.transfer(sellingPrice.sub(contractCut));\n        }\n\n        // return extra ether\n        if (excess > 0) {\n            newOwner.transfer(excess);\n        }\n    }\n\n    function priceOf(uint256 _tokenId) public view returns (uint256 _price) {\n        return tokenIdToPrice[_tokenId];\n    }\n\n    uint256 private increaseLimit1 = 0.02 ether;\n    uint256 private increaseLimit2 = 0.5 ether;\n    uint256 private increaseLimit3 = 2.0 ether;\n    uint256 private increaseLimit4 = 5.0 ether;\n\n    function nextPriceOf(uint256 _tokenId) public view returns (uint256 _nextPrice) {\n        uint256 _price = priceOf(_tokenId);\n        if (_price < increaseLimit1) {\n            return _price.mul(200).div(95);\n        } else if (_price < increaseLimit2) {\n            return _price.mul(135).div(96);\n        } else if (_price < increaseLimit3) {\n            return _price.mul(125).div(97);\n        } else if (_price < increaseLimit4) {\n            return _price.mul(117).div(97);\n        } else {\n            return _price.mul(115).div(98);\n        }\n    }\n\n    /*** ERC-721 ***/\n    // Unlocks ERC721 behaviour, allowing for trading on third party platforms.\n    function enableERC721() public onlyCEO {\n        erc721Enabled = true;\n    }\n\n    function totalSupply() public view returns (uint256 _totalSupply) {\n        _totalSupply = doggies.length;\n    }\n\n    function balanceOf(address _owner) public view returns (uint256 _balance) {\n        _balance = ownershipTokenCount[_owner];\n    }\n\n    function ownerOf(uint256 _tokenId) public view returns (address _owner) {\n        _owner = tokenIdToOwner[_tokenId];\n    }\n\n    function approve(address _to, uint256 _tokenId) public whenNotPaused onlyERC721 {\n        require(_owns(msg.sender, _tokenId));\n\n        tokenIdToApproved[_tokenId] = _to;\n\n        Approval(msg.sender, _to, _tokenId);\n    }\n\n    function transferFrom(address _from, address _to, uint256 _tokenId) public whenNotPaused onlyERC721 {\n        require(_to != address(0));\n        require(_owns(_from, _tokenId));\n        require(_approved(msg.sender, _tokenId));\n\n        _transfer(_from, _to, _tokenId);\n    }\n\n    function transfer(address _to, uint256 _tokenId) public whenNotPaused onlyERC721 {\n        require(_to != address(0));\n        require(_owns(msg.sender, _tokenId));\n\n        // Reassign ownership, clear pending approvals, emit Transfer event.\n        _transfer(msg.sender, _to, _tokenId);\n    }\n\n    function implementsERC721() public view whenNotPaused returns (bool) {\n        return erc721Enabled;\n    }\n\n    function takeOwnership(uint256 _tokenId) public whenNotPaused onlyERC721 {\n        require(_approved(msg.sender, _tokenId));\n\n        _transfer(tokenIdToOwner[_tokenId], msg.sender, _tokenId);\n    }\n\n    function name() public view returns (string _name) {\n        _name = \"CryptoDoggies\";\n    }\n\n    function symbol() public view returns (string _symbol) {\n        _symbol = \"CDK\";\n    }\n\n    /*** PRIVATES ***/\n    /// @dev Check for token ownership.\n    function _owns(address _claimant, uint256 _tokenId) private view returns (bool) {\n        return tokenIdToOwner[_tokenId] == _claimant;\n    }\n\n    /// @dev For checking approval of transfer for address _to.\n    function _approved(address _to, uint256 _tokenId) private view returns (bool) {\n        return tokenIdToApproved[_tokenId] == _to;\n    }\n\n    /// @dev Assigns ownership of a specific token to an address.\n    function _transfer(address _from, address _to, uint256 _tokenId) private {\n        // Since the number of tokens is capped to 2^32 we can't overflow this\n        ownershipTokenCount[_to]++;\n        // Transfer ownership\n        tokenIdToOwner[_tokenId] = _to;\n\n        // When creating new token _from is 0x0, but we can't account that address.\n        if (_from != address(0)) {\n            ownershipTokenCount[_from]--;\n            // clear any previously approved ownership exchange\n            delete tokenIdToApproved[_tokenId];\n        }\n\n        // Emit the transfer event.\n        Transfer(_from, _to, _tokenId);\n    }\n\n    /// @dev Checks if the address ia a contract or not\n    function _isContract(address addr) private view returns (bool) {\n        uint256 size;\n        assembly { size := extcodesize(addr) }\n        return size > 0;\n    }\n}\n",
  "sourcePath": "/Users/nathan/Dropbox/Work/Udemy/smart-contract-game/materials/cryptodoggies/contracts/CryptoDoggies.sol",
  "compiler": {
    "name": "solc",
    "version": "0.4.19+commit.c4cbbb05.Emscripten.clang"
  },
  "schemaVersion": "1.0.1",
  "updatedAt": "2018-02-28T13:48:43.113Z"
}